:040300008CEF01F08D
:10030800FACF17F4FBCF18F4E9CF19F4D5ED22F0A2
:1003180001EEF0F0680EF66E030EF76E11EE88F03F
:10032800ABEC01F000EE00F010EE5BF0A4EC01F095
:1003380001EE00F010EEF0F0A4EC01F078EF02F01E
:10034800EE6AE550E150FCE1E250FAE112000900E2
:10035800F5CFEEFFE550E150FAE1E250F8E1120086
:1003680001000300050009000B000D000F0011003B
:10037800130017001B001D002100250029002D0077
:1003880031003500010003000500070009000B00DB
:100398000D000F001100150019001D002100250097
:1003A80029002D0031003500010003000500090077
:1003B8000D000F0011001300150019001D001F008B
:1003C8002100250029002D0031003500010003001F
:1003D800050007000B000D000F00110013001700A7
:1003E8001B001F002100250029002D0031003500C9
:1003F80001000300050009000B000F0011001300A5
:10040800150019001D001F002300250029002D00DC
:1004180031003500010003000500070009000D0048
:100428000F001100130017001B001F0023002500F8
:1004380029002D00310035000100030005000900E6
:100448000D0011001300150017001B001F002100EC
:100458002300250029002D0031003500010003008C
:10046800050007000B000F0011001300150019000C
:100478001D0021002300250029002D003100350032
:100488000100030007000B000D000F00110013000E
:10049800150019001B001D002100250029002D0052
:1004A8003100350001000300070009000B000D00B2
:1004B8000F0011001300170019001D00210025006E
:1004C80029002D00310035000100030007000B0052
:1004D8000D000F0011001300150019001B001D006E
:1004E8002100250029002D009D96949A94889496C1
:1004F800949C400EC76E220EC66E0401006F880ED3
:10050800D56E04010051D58EF28AF184B20ED66EF2
:10051800F30ED76ECD800401006F810EB16E040119
:100528000051B180A082A2823C0EB26EF60EB36E6C
:100538009482050EBA6EA080A2809484040EBD6ECB
:100548009D849F849380F288F18CF086F08C93824E
:10055800F18AF28CF28E0401006F0F0EC16E040155
:10056800005192909292929492969298929A938035
:100578009382938493969398939A939C939E949042
:100588009482948494969488949A949C949E95903A
:100598009592959495969598959A959C959E9690F2
:1005A8009692000E4D6E000E4E6E0401006F000E06
:1005B800116E04010051000E556E000E566E010EAC
:1005C800026E000E036E000E596E000E5A6E000E7B
:1005D800496E000E4A6E000E536E000E546E0401F2
:1005E800006F000E126E040100510401006F000E2E
:1005F800166E040100510401006F000E076E04011D
:1006080000510401006F000E086E0401005104013E
:10061800006F000E066E040100510401006F000E09
:10062800056E040100510401006F000E0E6E0401F6
:1006380000510401006F000E0F6E04010051040107
:10064800006F000E106E040100510401006F020ECD
:10065800016E040100510401006F000E0D6E0401CB
:1006680000510401006F010E006E040100510401E5
:10067800006F000E156E040100510401006F000E9A
:10068800096E040100510401006F000E0C6E040194
:100698000051000E576E000E586E0401006F010ED7
:1006A800046E040100510401006F000E0B6E04017A
:1006B8000051000E436E000E446E000E196E000EBF
:1006C8001A6E000E176E000E186E000E1D6E000ECC
:1006D8001E6E000E1B6E000E1C6E0401006F000ED5
:1006E800146E0401005114C002F454EC2BF08490F1
:1006F80084828092829E8290809A8098046601D03B
:1007080001D006D0B190A092819E819C819A1DD083
:100718000404D8A401D001D005D0B180A082A8ECEF
:1007280027F013D00450020AD8A401D001D005D074
:10073800B180A082E4EC2AF008D00450030AD8A4BF
:1007480001D001D002D0B180A082106601D001D0C2
:1007580005D00150D8B401D001D0D1D30401006F25
:10076800010E0D6E040100510004D8A401D001D07F
:100778007CD01004D8A401D001D022D0000E572478
:10078800576E100E5820586E0401006F000E106E40
:100798000401005105D0000E576E000E586E0FD0A0
:1007A80057C000F458C001F405D004010051000AF4
:1007B800F2E005D004010151600AF7E000D054D0FE
:1007C8000104D8A401D001D022D0000E5724576EBE
:1007D800F00E5820586E0401006F000E016E0401DF
:1007E800005105D0000E576E500E586E0FD057C0EE
:1007F80000F458C001F405D004010051000AF2E0E9
:1008080005D004010151F00AF7E000D02DD01050B6
:10081800020AD8A401D001D01BD00401006F000E39
:10082800106E040100510401006F000E006E0401F7
:1008380000510401006F010E156E0401005158505B
:10084800200A5710D8A401D001D001D080880CD03C
:100858000150020AD8A401D001D006D00401006FCB
:10086800000E016E040100514AD31504D8A401D02A
:1008780001D0D9D11004D8A401D001D05ED0000E87
:100888005724576E010E5820586E0401006F000E51
:10089800106E040100511ED0000E576E000E586EE7
:1008A8004BD0000E576E100E586E46D0000E576E85
:1008B800200E586E41D0000E576E300E586E3CD048
:1008C800000E576E400E586E37D0000E576E500E01
:1008D800586E32D057C000F458C001F41ED004013D
:1008E8000051000AD9E028D004010051000AD9E0DB
:1008F80023D004010051000AD9E01ED004010051A0
:10090800000AD9E019D004010051000AD9E014D036
:1009180004010051000AD9E00FD004010151060A70
:10092800DEE0130AE1E0310AE4E0120AE7E0740AC3
:10093800EAE0170AEDE000D075D10104D8A401D08F
:1009480001D05ED0000E5724576EFF0E5820586E07
:100958000401006F000E016E040100511ED0000E4C
:10096800576E050E586E4BD0000E576E140E586E0B
:1009780046D0000E576E230E586E41D0000E576EAB
:10098800350E586E3CD0000E576E410E586E37D05B
:10099800000E576E540E586E32D057C000F458C02F
:1009A80001F41ED004010051000ADEE028D0040141
:1009B8000051000ADEE023D004010051000ADEE005
:1009C8001ED004010051000ADEE019D004010051D4
:1009D800000ADEE014D004010051000AC0E00FD084
:1009E800040101510F0ADEE0100AE1E0300AE4E0F8
:1009F800100AE7E0700AEAE0B00AEDE000D012D190
:100A08001050020AD8A401D001D0E6D00401006F2A
:100A1800000E106E0401005114D00401006F010E85
:100A28000B6E04010051D7D00401006F000E156E43
:100A3800040100510401006F010E096E0401005108
:100A4800CAD057C000F458C001F488D0040100513E
:100A5800000AE3E0E9D704010051000ADEE0E4D728
:100A680004010051000AD9E0DFD704010051000A4F
:100A7800D4E0DAD704010051000ACFE0D5D7040149
:100A88000051000ACAE0D0D704010051000AC5E0AD
:100A9800CBD704010051000AC0E0C6D704010051B9
:100AA800000ABBE0C1D704010051000AB6E0BCD778
:100AB80004010051000AB1E0B7D704010051000A4F
:100AC800ACE0B2D704010051000AA7E0ADD7040199
:100AD8000051000AA2E0A8D704010051000A9DE0D5
:100AE800A3D704010051000A98E09ED704010051E1
:100AF800000A93E099D704010051000A8EE094D7C8
:100B080004010051000A89E08FD704010051000A4E
:100B180084E08AD704010051000A01E17ED784D716
:100B280004010051000A01E178D77ED70401005181
:100B3800000A01E172D778D704010051000A01E1E7
:100B48006CD772D704010051000A01E166D76CD74F
:100B580004010051000A01E160D766D70401015180
:100B6800000A01E173D7010A01E175D7050A01E11D
:100B780077D7010A01E179D7150A01E17BD7010A84
:100B880001E17DD7030A80E0010A83E0070A86E0D5
:100B9800340A89E0010A8CE0030A8FE0010A92E036
:100BA800130A95E0010A98E0030A9BE0010A9EE017
:100BB800070AA1E0010AA4E0750AA7E0010AAAE071
:100BC800110AAEE0010AB2E0030AB6E0010ABAE08F
:100BD800070ABEE029D726D00150020AD8A401D0BE
:100BE80001D020D00401006F000E016E04010051F5
:100BF8000401006F000E156E040100510401006F1E
:100C0800010E006E04010051000E5714576EF00ECD
:100C18005814586E5850200A5710D8A401D001D043
:100C280001D080986CD10904D8A401D001D0C8D0D3
:100C38001004D8A401D001D02ED0100E5724576E1E
:100C4800000E5820586E0401006F000E106E04014B
:100C580000510AD0000E576E020E586E1BD0000EBF
:100C6800576E030E586E16D057C000F458C001F4E2
:100C78000AD004010051500AEDE00CD004010051E3
:100C8800A00AEDE007D004010151020AF2E0010ACE
:100C9800F5E000D094D00104D8A401D001D02ED022
:100CA800F00E5724576EFF0E5820586E0401006F3F
:100CB800000E016E040100510AD0400E576E020E5C
:100CC800586E1BD0900E576E030E586E16D057C034
:100CD80000F458C001F40AD004010051F00AEDE014
:100CE8000CD004010051F00AEDE007D004010151D5
:100CF800010AF2E0030AF5E000D061D01050020AC0
:100D0800D8A401D001D03DD00401006F000E106EB0
:100D18000401005114D00401006F010E0B6E040190
:100D280000512ED00401006F000E096E040100511D
:100D38000401006F010E0C6E0401005121D057C050
:100D480000F458C001F417D004010051000AE3E090
:100D5800100AE1E0300ADFE0100ADDE0700ADBE0AB
:100D6800100AD9E0300AD7E0100AD5E0F00AD3E03B
:100D7800100AD1E0D7D704010151030AE5E0D2D720
:100D88001ED00150020AD8A401D001D018D0040105
:100D9800006F000E016E040100510401006F000E87
:100DA800096E040100510401006F010E156E040163
:100DB8000051000E5714576EFF0E5814586E9FD0EE
:100DC8000C04D8A401D001D09AD01004D8A401D022
:100DD80001D028D0010E5724576E000E5820586EA7
:100DE8000401006F000E106E0401005107D0F00ED0
:100DF8005714576E020E5814586E13D00F0E57140E
:100E08000401006F020E58140401016F05D004019B
:100E18000051050AECE005D004010151020AF7E08F
:100E280000D06DD00104D8A401D001D037D0FF0E76
:100E38005724576EFF0E5820586E0401006F000E9D
:100E4800016E0401005116D0100E57240401006FE2
:100E5800000E58200401016FF00E04010017000E67
:100E68000117040E04010025576E020E040101212A
:100E7800586E13D00F0E57140401006F000E58144B
:100E88000401016F05D0040100510F0ADDE005D00F
:100E980004010151000AF7E000D031D01050020AD5
:100EA800D8A401D001D00DD00401006F000E106E3F
:100EB800040100510401006F010E0B6E0401005182
:100EC8001ED00150020AD8A401D001D018D00401C4
:100ED800006F000E016E040100510401006F000E46
:100EE8000C6E040100510401006F010E096E04012B
:100EF8000051F00E5714576EFF0E5814586E81A407
:100F080001D001D012D00401006F010E0D6E040152
:100F180000510401006F010E136E04010051040119
:100F2800006F000E0B6E040100510D04D8A401D00F
:100F380002D0C3EF1FF00401006F000E0D6E040114
:100F480000510004D8A401D001D0B4D07ED01366DB
:100F580001D001D010D0170E04010401046F000E57
:100F68000401056F130E04010401026F000E040151
:100F7800036FAEEC24F09CD0136601D001D0FBD7F0
:100F88001E0E04010401046F000E0401056F1A0E01
:100F980004010401026F000E0401036FAEEC24F09B
:100FA80087D0136601D001D0E6D7250E04010401CD
:100FB800046F000E0401056F200E04010401026F86
:100FC800000E0401036FAEEC24F072D0136601D05A
:100FD80001D0D1D72E0E04010401046F000E0401C4
:100FE800056F270E04010401026F000E0401036F50
:100FF800AEEC24F05DD0136601D001D0BCD7380E1A
:1010080004010401046F000E0401056F310E040190
:101018000401026F000E0401036FAEEC24F048D007
:10102800136601D001D0A7D73F0E04010401046F55
:10103800000E0401056F3A0E04010401026F000E50
:101048000401036FAEEC24F033D057C000F458C04D
:1010580001F41FD004010051000A01E178D728D01B
:1010680004010051000A88E023D004010051000A5D
:1010780098E01ED004010051000AA8E019D004012C
:101088000051000AB8E014D004010051000AC8E079
:101098000FD004010151000ADDE0100AE1E0300A36
:1010A800E4E0100AE7E0700AEAE0100AEDE000D098
:1010B800BDEF1FF01504D8A401D002D084EF0FF0C3
:1010C80080EF0EF00B6601D001D014D0136601D06A
:1010D80001D010D04A0E04010401046F000E04016F
:1010E800056F430E04010401026F000E0401036F33
:1010F800AEEC24F00B04D8A401D001D015D0040123
:10110800006F000E0B6E04010051030E0401040170
:10111800026F000E0401036F000E0401046F000E3D
:101128000401056F4EEC29F01304D8A401D001D0B6
:1011380015D00401006F000E136E04010051030E58
:1011480004010401026F000E0401036F000E040184
:10115800046F000E0401056F61EC2AF082EF0FF0B6
:101168000B6601D001D014D0136601D001D010D085
:10117800540E04010401046F000E0401056F4B0EA8
:1011880004010401026F000E0401036FAEEC24F0A9
:101198000B04D8A401D001D015D00401006F000EB3
:1011A8000B6E04010051010E04010401026F000ED0
:1011B8000401036F000E0401046F000E0401056FA3
:1011C8004EEC29F01304D8A401D001D0C7D70401EC
:1011D800006F000E136E04010051010E040104019A
:1011E800026F000E0401036F000E0401046F000E6D
:1011F8000401056F61EC2AF082EF0FF0136601D04D
:1012080001D0ACD75E0E04010401046F000E040186
:10121800056F550E04010401026F000E0401036FEF
:10122800AEEC24F082EF0FF0136601D001D096D710
:10123800650E04010401046F000E0401056F600EC1
:1012480004010401026F000E0401036FAEEC24F0E8
:1012580082EF0FF00B6601D001D014D0136601D0D5
:1012680001D010D0720E04010401046F000E0401B5
:10127800056F6A0E04010401026F000E0401036F7A
:10128800AEEC24F00B04D8A401D001D015D0040191
:10129800006F000E0B6E04010051020E04010401E0
:1012A800026F000E0401036F000E0401046F000EAC
:1012B8000401056F4EEC29F01304D8A401D001D025
:1012C8004DD70401006F000E136E04010051020E89
:1012D80004010401026F000E0401036F000E0401F3
:1012E800046F000E0401056F61EC2AF082EF0FF025
:1012F8000B6601D001D014D0136601D001D010D0F4
:101308007F0E04010401046F000E0401056F740EC2
:1013180004010401026F000E0401036FAEEC24F017
:101328000B04D8A401D001D015D00401006F000E21
:101338000B6E04010051030E04010401026F000E3C
:101348000401036F000E0401046F000E0401056F11
:101358004EEC29F01304D8A401D001D0FFD6040123
:10136800006F000E136E04010051030E0401040106
:10137800026F000E0401036F000E0401046F000EDB
:101388000401056F61EC2AF082EF0FF00B6601D0C3
:1013980001D014D0136601D001D010D0860E0401FC
:1013A8000401046F000E0401056F820E040104019C
:1013B800026F000E0401036FAEEC24F00B04D8A4F6
:1013C80001D001D0CBD60401006F000E0B6E0401D2
:1013D8000051010E04010401036F000E0401046FA3
:1013E80043C002F4C7EC1FF0010E43240401006F50
:1013F800000E44200401016F010E04010015436E24
:10140800000E04010115446E82EF0FF00B6601D047
:1014180001D014D0136601D001D010D0910E040170
:101428000401046F000E0401056F8B0E0401040112
:10143800026F000E0401036FAEEC24F00B04D8A475
:1014480001D001D08BD60401006F000E0B6E040191
:101458000051020E04010401036F000E0401046F21
:1014680019C002F4C7EC1FF0010E19240401006F23
:10147800000E1A200401016F010E04010015196EF7
:10148800000E040101151A6E82EF0FF00B6601D0F1
:1014980001D014D0136601D001D010D0960E0401EB
:1014A8000401046F000E0401056F920E040104018B
:1014B800026F000E0401036FAEEC24F00B04D8A4F5
:1014C80001D001D04BD60401006F000E0B6E040151
:1014D8000051030E04010401036F000E0401046FA0
:1014E80017C002F4C7EC1FF0010E17240401006FA7
:1014F800000E18200401016F010E04010015176E7B
:10150800000E04010115186E82EF0FF00B6601D072
:1015180001D014D0136601D001D010D09F0E040161
:101528000401046F000E0401056F9A0E0401040102
:10153800026F000E0401036FAEEC24F00B04D8A474
:1015480001D001D00BD60401006F000E0B6E040110
:101558000051040E04010401036F000E0401046F1E
:101568001DC002F4C7EC1FF0010E1D240401006F1A
:10157800000E1E200401016F010E040100151D6EEE
:10158800000E040101151E6E82EF0FF00B6601D0EC
:1015980001D014D0136601D001D010D0A50E0401DB
:1015A8000401046F000E0401056FA00E040104017C
:1015B800026F000E0401036FAEEC24F00B04D8A4F4
:1015C80001D001D0CBD50401006F000E0B6E0401D1
:1015D8000051050E04010401036F000E0401046F9D
:1015E8001BC002F4C7EC1FF0010E1B240401006F9E
:1015F800000E1C200401016F010E040100151B6E72
:10160800000E040101151C6E82EF0FF00B6601D06D
:1016180001D028D0136601D001D024D080980A0EBA
:1016280004010401106F000E0401116FC5EC2EF0C7
:10163800AE0E04010401046F000E0401056FA80E2C
:1016480004010401026F000E0401036FAEEC24F0E4
:1016580080880A0E04010401106F000E0401116F46
:10166800C5EC2EF00B04D8A401D001D077D5040125
:10167800006F000E0B6E04010051808A190E0401E0
:101688000401106F000E0401116FC5EC2EF0809A52
:1016980082EF0FF00B6601D001D028D0136601D07D
:1016A80001D024D080980A0E04010401106F000EA6
:1016B8000401116FC5EC2EF0B50E04010401046F8E
:1016C800000E0401056FB00E04010401026F000E44
:1016D8000401036FAEEC24F080880A0E04010401B3
:1016E800106F000E0401116FC5EC2EF00B04D8A486
:1016F80001D001D033D50401006F000E0B6E040138
:1017080000518480190E04010401106F000E0401B9
:10171800116FC5EC2EF08490F1D30B6601D001D087
:1017280028D0136601D001D024D080980A0E040175
:101738000401106F000E0401116FC5EC2EF0C00EED
:1017480004010401046F000E0401056FBA0E0401C0
:101758000401026F000E0401036FAEEC24F08088D0
:101768000A0E04010401106F000E0401116FC5EC8C
:101778002EF00B04D8A401D001D0F0D40401006FDE
:10178800000E0B6E04010051D1EC2DF0B7D30B669F
:1017980001D001D028D0136601D001D024D0809880
:1017A8000A0E04010401106F000E0401116FC5EC4C
:1017B8002EF0C80E04010401046F000E0401056F29
:1017C800C20E04010401026F000E0401036FAEECA7
:1017D80024F080880A0E04010401106F000E040131
:1017E800116FC5EC2EF00B04D8A401D001D0B6D4EB
:1017F8000401006F000E0B6E0401005198EC2DF0EF
:101808007DD30B6601D001D014D0136601D001D06E
:1018180010D0D60E04010401046F000E0401056FF8
:10182800D30E04010401026F000E0401036FAEEC35
:1018380024F00B04D8A401D001D090D40401006F87
:10184800000E0B6E040100510401006F000E046EBF
:101858000401005153D30B6601D001D014D0136694
:1018680001D001D010D0EE0E04010401046F000E67
:101878000401056FE60E04010401026F000E040165
:10188800036FAEEC24F00B04D8A401D001D066D4C9
:101898000401006F000E0B6E040100510401006F7B
:1018A800010E046E0401005129D30B6601D001D04A
:1018B80014D0136601D001D010D0F60E0401040133
:1018C800046F000E0401056FF00E04010401026F9D
:1018D800000E0401036FAEEC24F00B04D8A401D071
:1018E80001D03CD40401006F000E0B6E04010051BE
:1018F8000401006F020E046E04010051FFD20B6652
:1019080001D001D014D0136601D001D010D0FD0E43
:1019180004010401046F000E0401056FF80E0401B0
:101928000401026F000E0401036FAEEC24F00B04F7
:10193800D8A401D001D012D40401006F000E0B6EA0
:10194800040100510401006F030E046E04010051EC
:10195800050E496E000E4A6E050E596E000E5A6E3F
:10196800CDD20B6601D001D014D0136601D001D0BE
:1019780010D0040E04010401046F010E0401056F68
:10198800000E04010401026F010E0401036FAEECA6
:1019980024F00B04D8A401D002D0B2EF08F004015F
:1019A800006F000E0B6E040100510401006F030E5E
:1019B800046E04010051050E496E000E4A6E050EB4
:1019C800026E000E036E9AD20B6601D001D014D0BD
:1019D800136601D001D010D00A0E04010401046F6F
:1019E800010E0401056F060E04010401026F010EC9
:1019F8000401036FAEEC24F00B04D8A401D002D08C
:101A0800B2EF08F00401006F000E0B6E04010051E4
:101A18000401006F030E046E04010051050E596E97
:101A2800000E5A6E6BD20B6601D001D014D013662B
:101A380001D001D010D0140E04010401046F010E6E
:101A48000401056F0C0E04010401026F010E04016C
:101A5800036FAEEC24F00B04D8A401D002D0B2EF8F
:101A680008F00401006F000E0B6E040100511450C1
:101A7800D8B401D001D002D01404146E14C002F4FA
:101A880054EC2BF03BD20B6601D001D014D0136676
:101A980001D001D010D01A0E04010401046F010E08
:101AA8000401056F150E04010401026F010E040103
:101AB800036FAEEC24F00B04D8A401D002D0B2EF2F
:101AC80008F00401006F000E0B6E04010051070EB0
:101AD800146001D001D002D01428146E14C002F48E
:101AE80054EC2BF00BD20B6601D001D014D0136646
:101AF80001D001D010D0220E04010401046F010EA0
:101B08000401056F1C0E04010401026F010E04019B
:101B1800036FAEEC24F00B04D8A401D002D0B2EFCE
:101B280008F00401006F000E0B6E04010051A50EB1
:101B380004010401046F010E0401056F9F0E0401E6
:101B48000401026F010E0401036FAEEC24F0D6D13C
:101B58000B6601D001D014D0136601D001D010D08B
:101B6800290E04010401046F010E0401056F250EFE
:101B780004010401026F010E0401036FAEEC24F0AE
:101B88000B04D8A401D002D0B2EF08F00401006F12
:101B9800000E0B6E04010051B00E04010401046F25
:101BA800010E0401056FA60E04010401026F010E67
:101BB8000401036FAEEC24F0A1D10B6601D001D073
:101BC80014D0136601D001D010D0320E04010401E4
:101BD800046F010E0401056F2B0E04010401026F4E
:101BE800010E0401036FAEEC24F00B04D8A401D05D
:101BF80002D0B2EF08F00401006F000E0B6E040172
:101C08000051BF0E04010401046F010E0401056FA9
:101C1800B40E04010401026F010E0401036FAEEC5F
:101C280024F06CD10B6601D001D014D0136601D01A
:101C380001D010D03A0E04010401046F010E040112
:101C4800056F340E04010401026F010E0401036FD5
:101C5800AEEC24F00B04D8A401D002D0B2EF08F007
:101C68000401006F000E0B6E04010051CA0E04013E
:101C78000401046F010E0401056FC10E0401040183
:101C8800026F010E0401036FAEEC24F037D10B662E
:101C980001D001D014D0136601D001D010D0420E6B
:101CA80004010401046F010E0401056F3B0E0401D9
:101CB8000401026F010E0401036FAEEC24F00B0463
:101CC800D8A401D002D0B2EF08F00401006F000ED2
:101CD8000B6E04010051D50E04010401046F010EBE
:101CE8000401056FCC0E04010401026F010E04010A
:101CF800036FAEEC24F002D157C000F458C001F4D1
:101D0800B3D004010051000A02E166EF08F0F6D0F2
:101D180004010051000A02E1B4EF08F0EFD0040119
:101D28000051000A02E102EF09F0E8D00401005175
:101D3800000A02E118EF09F0E1D004010051000A9D
:101D480002E12EEF09F0DAD004010051000A02E1A5
:101D58007CEF09F0D3D004010051000A02E1CAEF78
:101D680009F0CCD004010051000A02E10AEF0AF0A0
:101D7800C5D004010051000A02E14AEF0AF0BED0C2
:101D880004010051000A02E18AEF0AF0B7D0040109
:101D98000051000A02E1CAEF0AF0B0D00401005174
:101DA800000A01E133D4AAD004010051000A01E17C
:101DB80071D4A4D004010051000A01E1AED49ED030
:101DC80004010051000A01E1E2D498D00401005155
:101DD800000A01E116D592D004010051000A01E180
:101DE8003AD58CD004010051000A01E15ED586D0B5
:101DF80004010051000A01E182D580D0040100519C
:101E0800000A01E1AED57AD004010051000A01E1CF
:101E1800DBD574D004010051000A01E104D66ED06C
:101E280004010051000A01E12ED668D004010051D6
:101E3800000A01E158D662D004010051000A01E10C
:101E480087D65CD004010051000A01E1B6D656D00D
:101E580004010051000A01E1E5D650D00401005107
:101E6800000A01E114D74AD004010151000A01E136
:101E780048D7010A01E14CD7030A01E150D7010A0A
:101E880001E154D7070A01E158D7010A01E15CD7FB
:101E9800150A01E160D7010A01E164D7030A01E1EB
:101EA80068D7010A01E16CD7070A01E170D7340A43
:101EB80001E174D7010A01E177D7030A01E17AD772
:101EC800010A01E17DD7130A81E0010A85E0030ACE
:101ED80089E0010A8DE0070A91E0010A95E0750A98
:101EE80099E0010A9DE0110AA1E0010AA5E0030AB0
:101EF800A9E0010AADE0070AB1E000D0BDEF1FF08C
:101F08000904D8A401D001D0ADD36BD3136601D096
:101F180001D010D04A0E04010401046F010E04011F
:101F2800056F450E04010401026F010E0401036FE1
:101F3800AEEC24F095D3136601D001D0FBD7520E36
:101F480004010401046F010E0401056F4B0E040126
:101F58000401026F010E0401036FAEEC24F080D37C
:101F6800136601D001D0E6D75B0E04010401046FAB
:101F7800010E0401056F550E04010401026F010EE4
:101F88000401036FAEEC24F06BD3136601D001D0CB
:101F9800D1D7620E04010401046F010E0401056F1C
:101FA8005D0E04010401026F010E0401036FAEEC23
:101FB80024F056D3136601D001D0BCD7250E0401F6
:101FC8000401046F000E0401056F200E04010401D2
:101FD800026F000E0401036FAEEC24F041D30B66D0
:101FE80001D001D014D0136601D001D010D06A0EF0
:101FF80004010401046F010E0401056F660E04015B
:102008000401026F010E0401036FAEEC24F00B040F
:10201800D8A401D001D015D00401006F000E0B6EBA
:1020280004010051040E04010401026F000E0401B2
:10203800036F000E0401046F000E0401056F4EECDF
:1020480029F01304D8A401D001D074D70401006F7B
:10205800000E136E04010051040E04010401026F06
:10206800000E0401036F000E0401046F000E04014A
:10207800056F61EC2AF0F4D20B6601D001D014D0C0
:10208800136601D001D010D0700E04010401046F52
:10209800010E0401056F6B0E04010401026F010EAD
:1020A8000401036FAEEC24F00B04D8A401D001D0D6
:1020B80015D00401006F000E0B6E04010051050ECF
:1020C80004010401026F000E0401036F000E0401F5
:1020D800046F000E0401056F4EEC29F01304D8A418
:1020E80001D001D027D70401006F000E136E040140
:1020F8000051050E04010401026F000E0401036F74
:10210800000E0401046F000E0401056F61EC2AF053
:10211800A7D20B6601D001D014D0136601D001D02C
:1021280010D0750E04010401046F010E0401056F3F
:10213800710E04010401026F010E0401036FAEEC7D
:1021480024F00B04D8A401D001D015D00401006FED
:10215800000E0B6E04010051060E04010401026F0B
:10216800000E0401036F000E0401046F000E040149
:10217800056F4EEC29F01304D8A401D001D0DAD6AB
:102188000401006F000E136E04010051060E0401D5
:102198000401026F000E0401036F000E0401046FB6
:1021A800000E0401056F61EC2AF05AD20B6601D0CB
:1021B80001D014D0136601D001D010D07A0E0401DA
:1021C8000401046F010E0401056F760E0401040179
:1021D800026F010E0401036FAEEC24F00B04D8A4C7
:1021E80001D001D015D00401006F000E0B6E040160
:1021F8000051070E04010401026F000E0401036F71
:10220800000E0401046F000E0401056F4EEC29F066
:102218001304D8A401D001D08DD60401006F000E9C
:10222800136E04010051070E04010401026F000E31
:102238000401036F000E0401046F000E0401056F12
:1022480061EC2AF00DD20B6601D001D014D01366D0
:1022580001D001D010D0800E04010401046F010EDA
:102268000401056F7C0E04010401026F010E0401D4
:10227800036FAEEC24F00B04D8A401D001D015D024
:102288000401006F000E0B6E04010051080E0401DA
:102298000401026F000E0401036F000E0401046FB5
:1022A800000E0401056F4EEC29F01304D8A401D0E8
:1022B80001D040D60401006F000E136E04010051D6
:1022C800080E04010401026F000E0401036F000EE2
:1022D8000401046F000E0401056F61EC2AF0C0D1FF
:1022E8000B6601D001D014D0136601D001D010D0F4
:1022F800860E04010401046F010E0401056F810EAE
:1023080004010401026F010E0401036FAEEC24F016
:102318000B04D8A401D001D015D00401006F000E21
:102328000B6E04010051090E04010401026F000E36
:102338000401036F000E0401046F000E0401056F11
:102348004EEC29F01304D8A401D001D0F3D5040130
:10235800006F000E136E04010051090E0401040100
:10236800026F000E0401036F000E0401046F000EDB
:102378000401056F61EC2AF073D10B6601D001D01E
:1023880014D0136601D001D010D08B0E04010401C3
:10239800046F010E0401056F870E04010401026F2A
:1023A800010E0401036FAEEC24F00B04D8A401D095
:1023B80001D015D00401006F000E0B6E040100510E
:1023C8000A0E04010401026F000E0401036F000EDF
:1023D8000401046F000E0401056F4EEC29F013048C
:1023E800D8A401D001D0A6D50401006F000E136E49
:1023F800040100510A0E04010401026F000E0401D9
:10240800036F000E0401046F000E0401056F61ECF8
:102418002AF026D10B6601D001D014D0136601D062
:1024280001D010D0910E04010401046F010E0401C3
:10243800056F8C0E04010401026F010E0401036F85
:10244800AEEC24F00B04D8A401D001D015D00401BF
:10245800006F000E0B6E040100510B0E0401040105
:10246800026F000E0401036F000E0401046F000EDA
:102478000401056F4EEC29F01304D8A401D001D053
:1024880059D50401006F000E136E040100510B0EA4
:1024980004010401026F000E0401036F000E040121
:1024A800046F000E0401056F61EC2AF0D9D00B66A9
:1024B80001D001D014D0136601D001D010D0960EEF
:1024C80004010401046F010E0401056F920E04015A
:1024D8000401026F010E0401036FAEEC24F00B043B
:1024E800D8A401D001D015D00401006F000E0B6EE6
:1024F800040100510C0E04010401026F000E0401D6
:10250800036F000E0401046F000E0401056F4EEC0A
:1025180029F01304D8A401D001D00CD50401006F10
:10252800000E136E040100510C0E04010401026F29
:10253800000E0401036F000E0401046F000E040175
:10254800056F61EC2AF08CD00B6601D001D014D055
:10255800136601D001D010D09A0E04010401046F53
:10256800010E0401056F970E04010401026F010EAC
:102578000401036FAEEC24F00B04D8A401D001D001
:1025880015D00401006F000E0B6E040100510D0EF2
:1025980004010401026F000E0401036F000E040120
:1025A800046F000E0401056F4EEC29F01304D8A443
:1025B80001D001D0BFD40401006F000E136E0401D6
:1025C80000510D0E04010401026F000E0401036F97
:1025D800000E0401046F000E0401056F61EC2AF07F
:1025E8003FD057C000F458C001F433D00401005163
:1025F800000A01E18BD4100A01E19DD4300A01E1FF
:10260800AFD4100A01E1C1D4700A01E1D3D428D0B3
:1026180004010051000A01E1E2D4100A01E12CD5BD
:10262800300A01E176D5100A01E1C0D5700A01E14E
:102638000AD6100A01E154D6300A01E19ED6100AE2
:1026480001E1E8D6F00A01E132D7100A01E17CD7AE
:1026580007D004010151020AC9E0010AD9E000D0FB
:10266800BDEF1FF00C04D8A401D002D0BDEF1FF0BD
:1026780053EF1FF00B6601D001D014D0136601D0C0
:1026880001D010D0E30E04010401046F010E04010F
:10269800056FDC0E04010401026F010E0401036FD3
:1026A800AEEC24F00B04D8A401D001D061D0040111
:1026B800006F000E0B6E040100510A0E04010401A4
:1026C800026F000E0401036F000E0401046F000E78
:1026D8000401056F4EEC29F0000E516E000E526E8B
:1026E800300E515C750E5258D8A001D001D001D0DF
:1026F8000AD0514A522A300E515C750E5258D8A051
:1027080001D001D0F6D7060E04010401026F000EB5
:102718000401036F000E0401046F000E0401056F2D
:102728004EEC29F0000E516E000E526E300E515CC8
:10273800750E5258D8A001D001D001D00AD0514A04
:10274800522A300E515C750E5258D8A001D001D0D3
:10275800F6D7040E04010401026F000E0401036F92
:10276800000E0401046F000E0401056F4EEC29F001
:10277800BDEF1FF00B6601D001D014D0136601D055
:1027880001D010D0EA0E04010401046F010E040107
:10279800056FE40E04010401026F010E0401036FCA
:1027A800AEEC24F00B04D8A401D001D0E1D7040189
:1027B800006F000E0B6E040100510A0E04010401A3
:1027C800026F000E0401036F000E0401046F000E77
:1027D8000401056F4EEC29F0000E516E000E526E8A
:1027E800300E515C750E5258D8A001D001D001D0DE
:1027F8000AD0514A522A300E515C750E5258D8A050
:1028080001D001D0F6D7060E04010401026F000EB4
:102818000401036F000E0401046F000E0401056F2C
:102828004EEC29F0000E516E000E526E300E515CC7
:10283800750E5258D8A001D001D001D00AD0514A03
:10284800522A300E515C750E5258D8A001D001D0D2
:10285800F6D7050E04010401026F000E0401036F90
:10286800000E0401046F000E0401056F4EEC29F000
:10287800BDEF1FF00B6601D001D014D0136601D054
:1028880001D010D0F30E04010401046F010E0401FD
:10289800056FEC0E04010401026F010E0401036FC1
:1028A800AEEC24F00B04D8A401D001D061D7040108
:1028B800006F000E0B6E040100510A0E04010401A2
:1028C800026F000E0401036F000E0401046F000E76
:1028D8000401056F4EEC29F0000E516E000E526E89
:1028E800300E515C750E5258D8A001D001D001D0DD
:1028F8000AD0514A522A300E515C750E5258D8A04F
:1029080001D001D0F6D7050E04010401026F000EB4
:102918000401036F000E0401046F000E0401056F2B
:102928004EEC29F0000E516E000E526E300E515CC6
:10293800750E5258D8A001D001D001D00AD0514A02
:10294800522A300E515C750E5258D8A001D001D0D1
:10295800F6D70C0E04010401026F000E0401036F88
:10296800000E0401046F000E0401056F4EEC29F0FF
:10297800BDEF1FF00B6601D001D014D0136601D053
:1029880001D010D0FC0E04010401046F010E0401F3
:10299800056FF60E04010401026F010E0401036FB6
:1029A800AEEC24F00B04D8A401D001D0E1D6040188
:1029B800006F000E0B6E040100510A0E04010401A1
:1029C800026F000E0401036F000E0401046F000E75
:1029D8000401056F4EEC29F0000E516E000E526E88
:1029E800300E515C750E5258D8A001D001D001D0DC
:1029F8000AD0514A522A300E515C750E5258D8A04E
:102A080001D001D0F6D7060E04010401026F000EB2
:102A18000401036F000E0401046F000E0401056F2A
:102A28004EEC29F0000E516E000E526E300E515CC5
:102A3800750E5258D8A001D001D001D00AD0514A01
:102A4800522A300E515C750E5258D8A001D001D0D0
:102A5800F6D7070E04010401026F000E0401036F8C
:102A6800000E0401046F000E0401056F4EEC29F0FE
:102A7800BDEF1FF00B6601D001D014D0136601D052
:102A880001D010D0040E04010401046F020E0401E9
:102A9800056FFE0E04010401026F010E0401036FAD
:102AA800AEEC24F00B04D8A401D001D061D6040107
:102AB800006F000E0B6E040100510B0E040104019F
:102AC800026F000E0401036F000E0401046F000E74
:102AD8000401056F4EEC29F0000E516E000E526E87
:102AE800300E515C750E5258D8A001D001D001D0DB
:102AF8000AD0514A522A300E515C750E5258D8A04D
:102B080001D001D0F6D7080E04010401026F000EAF
:102B18000401036F000E0401046F000E0401056F29
:102B28004EEC29F0000E516E000E526E300E515CC4
:102B3800750E5258D8A001D001D001D00AD0514A00
:102B4800522A300E515C750E5258D8A001D001D0CF
:102B5800F6D7060E04010401026F000E0401036F8C
:102B6800000E0401046F000E0401056F4EEC29F0FD
:102B7800BDEF1FF00B6601D001D014D0136601D051
:102B880001D010D0170E04010401046F000E0401D7
:102B9800056F130E04010401026F000E0401036F98
:102BA800AEEC24F00B04D8A401D001D0E1D5040187
:102BB800006F000E0B6E04010051080E04010401A1
:102BC800026F000E0401036F000E0401046F000E73
:102BD8000401056F4EEC29F0000E516E000E526E86
:102BE800300E515C750E5258D8A001D001D001D0DA
:102BF8000AD0514A522A300E515C750E5258D8A04C
:102C080001D001D0F6D7040E04010401026F000EB2
:102C18000401036F000E0401046F000E0401056F28
:102C28004EEC29F0BDEF1FF00B6601D001D014D097
:102C3800136601D001D010D0140E04010401046FF2
:102C4800020E0401056F0D0E04010401026F020E4D
:102C58000401036FAEEC24F00B04D8A401D001D01A
:102C680087D50401006F000E0B6E040100510A0E97
:102C780004010401026F000E0401036F000E040139
:102C8800046F000E0401056F4EEC29F0000E516E22
:102C9800000E526E300E515C750E5258D8A001D0FD
:102CA80001D001D00AD0514A522A300E515C750E1B
:102CB8005258D8A001D001D0F6D70B0E0401040158
:102CC800026F000E0401036F000E0401046F000E72
:102CD8000401056F4EEC29F0000E516E000E526E85
:102CE800300E515C750E5258D8A001D001D001D0D9
:102CF8000AD0514A522A300E515C750E5258D8A04B
:102D080001D001D0F6D7050E04010401026F000EB0
:102D18000401036F000E0401046F000E0401056F27
:102D28004EEC29F0BDEF1FF00B6601D001D014D096
:102D3800136601D001D010D01C0E04010401046FE9
:102D4800020E0401056F150E04010401026F020E44
:102D58000401036FAEEC24F00B04D8A401D001D019
:102D680007D50401006F000E0B6E040100510A0E16
:102D780004010401026F000E0401036F000E040138
:102D8800046F000E0401056F4EEC29F0000E516E21
:102D9800000E526E300E515C750E5258D8A001D0FC
:102DA80001D001D00AD0514A522A300E515C750E1A
:102DB8005258D8A001D001D0F6D70B0E0401040157
:102DC800026F000E0401036F000E0401046F000E71
:102DD8000401056F4EEC29F0000E516E000E526E84
:102DE800300E515C750E5258D8A001D001D001D0D8
:102DF8000AD0514A522A300E515C750E5258D8A04A
:102E080001D001D0F6D7060E04010401026F000EAE
:102E18000401036F000E0401046F000E0401056F26
:102E28004EEC29F0BDEF1FF00B6601D001D014D095
:102E3800136601D001D010D0520E04010401046FB2
:102E4800010E0401056F4B0E04010401026F010E0F
:102E58000401036FAEEC24F00B04D8A401D001D018
:102E680087D40401006F000E0B6E040100510A0E96
:102E780004010401026F000E0401036F000E040137
:102E8800046F000E0401056F4EEC29F0000E516E20
:102E9800000E526E300E515C750E5258D8A001D0FB
:102EA80001D001D00AD0514A522A300E515C750E19
:102EB8005258D8A001D001D0F6D70B0E0401040156
:102EC800026F000E0401036F000E0401046F000E70
:102ED8000401056F4EEC29F0000E516E000E526E83
:102EE800300E515C750E5258D8A001D001D001D0D7
:102EF8000AD0514A522A300E515C750E5258D8A049
:102F080001D001D0F6D7090E04010401026F000EAA
:102F18000401036F000E0401046F000E0401056F25
:102F28004EEC29F0BDEF1FF00B6601D001D014D094
:102F3800136601D001D010D06E0E04010401046F95
:102F4800020E0401056F680E04010401026F020EEF
:102F58000401036FAEEC24F00B04D8A401D001D017
:102F680007D40401006F000E0B6E040100510A0E15
:102F780004010401026F000E0401036F000E040136
:102F8800046F000E0401056F4EEC29F0000E516E1F
:102F9800000E526E300E515C750E5258D8A001D0FA
:102FA80001D001D00AD0514A522A300E515C750E18
:102FB8005258D8A001D001D0F6D70B0E0401040155
:102FC800026F000E0401036F000E0401046F000E6F
:102FD8000401056F4EEC29F0000E516E000E526E82
:102FE800300E515C750E5258D8A001D001D001D0D6
:102FF8000AD0514A522A300E515C750E5258D8A048
:1030080001D001D0F6D7040E04010401026F000EAE
:103018000401036F000E0401046F000E0401056F24
:103028004EEC29F0BDEF1FF00B6601D001D014D093
:10303800136601D001D010D0370E04010401046FCB
:10304800020E0401056F330E04010401026F020E23
:103058000401036FAEEC24F00B04D8A401D002D015
:10306800BCEF13F00401006F000E0B6E0401005159
:10307800050E04010401026F000E0401036F000E27
:103088000401046F000E0401056F4EEC29F0000ED8
:10309800516E000E526E300E515C750E5258D8A00B
:1030A80001D001D001D00AD0514A522A300E515CC9
:1030B800750E5258D8A001D001D0F6D70C0E0401D5
:1030C8000401026F000E0401036F000E0401046F77
:1030D800000E0401056F4EEC29F0BDEF1FF00B66E2
:1030E80001D001D014D0136601D001D010D0910EB8
:1030F80004010401046F010E0401056F8C0E040124
:103108000401026F010E0401036FAEEC24F00B04FE
:10311800D8A401D002D0BCEF13F00401006F000E58
:103128000B6E040100510A0E04010401026F000E27
:103138000401036F000E0401046F000E0401056F03
:103148004EEC29F0000E516E000E526E300E515C9E
:10315800750E5258D8A001D001D001D00AD0514ADA
:10316800522A300E515C750E5258D8A001D001D0A9
:10317800F6D70C0E04010401026F000E0401036F60
:10318800000E0401046F000E0401056F4EEC29F0D7
:10319800000E516E000E526E300E515C750E525874
:1031A800D8A001D001D001D00AD0514A522A300EFD
:1031B800515C750E5258D8A001D001D0F6D7040E34
:1031C80004010401026F000E0401036F000E0401E4
:1031D800046F000E0401056F4EEC29F0BDEF1FF0DF
:1031E8000B6601D001D014D0136601D001D010D0E5
:1031F800450E04010401046F020E0401056F400E20
:1032080004010401026F020E0401036FAEEC24F006
:103218000B04D8A401D002D0BCEF13F00401006F56
:10322800000E0B6E040100510A0E04010401026F26
:10323800000E0401036F000E0401046F000E040168
:10324800056F4EEC29F0000E516E000E526E300ED6
:10325800515C750E5258D8A001D001D001D00AD0C7
:10326800514A522A300E515C750E5258D8A001D0DE
:1032780001D0F6D70C0E04010401026F000E040100
:10328800036F000E0401046F000E0401056F4EEC7D
:1032980029F0000E516E000E526E300E515C750E04
:1032A8005258D8A001D001D001D00AD0514A522A90
:1032B800300E515C750E5258D8A001D001D0F6D707
:1032C800070E04010401026F000E0401036F000ED3
:1032D8000401046F000E0401056F4EEC29F0BDEFE8
:1032E8001FF00B6601D001D014D0136601D001D0B5
:1032F80010D04B0E04010401046F020E0401056F87
:10330800460E04010401026F020E0401036FAEECC5
:1033180024F00B04D8A401D002D0BCEF13F00401B0
:10332800006F000E0B6E040100510A0E0401040127
:10333800026F000E0401036F000E0401046F000EFB
:103348000401056F4EEC29F0000E516E000E526E0E
:10335800300E515C750E5258D8A001D001D001D062
:103368000AD0514A522A300E515C750E5258D8A0D4
:1033780001D001D0F6D70C0E04010401026F000E33
:103388000401036F000E0401046F000E0401056FB1
:103398004EEC29F0000E516E000E526E300E515C4C
:1033A800750E5258D8A001D001D001D00AD0514A88
:1033B800522A300E515C750E5258D8A001D001D057
:1033C800F6D70A0E04010401026F000E0401036F10
:1033D800000E0401046F000E0401056F4EEC29F085
:1033E800BDEF1FF00B6601D001D014D0136601D0D9
:1033F80001D010D0530E04010401046F020E040121
:10340800056F4E0E04010401026F020E0401036FE2
:10341800AEEC24F00B04D8A401D002D0BCEF13F01A
:103428000401006F000E0B6E040100510A0E040126
:103438000401026F000E0401036F000E0401046F03
:10344800000E0401056F4EEC29F0000E516E000EBF
:10345800526E300E515C750E5258D8A001D001D072
:1034680001D00AD0514A522A300E515C750E52587A
:10347800D8A001D001D0F6D70D0E04010401026FC7
:10348800000E0401036F000E0401046F000E040116
:10349800056F4EEC29F0000E516E000E526E300E84
:1034A800515C750E5258D8A001D001D001D00AD075
:1034B800514A522A300E515C750E5258D8A001D08C
:1034C80001D0F6D7050E04010401026F000E0401B5
:1034D800036F000E0401046F000E0401056F4EEC2B
:1034E80029F0BDEF1FF00B6601D001D014D0136690
:1034F80001D001D010D05A0E04010401046F020E4D
:103508000401056F570E04010401026F020E040145
:10351800036FAEEC24F00B04D8A401D002D0BCEFAA
:1035280013F00401006F000E0B6E040100510A0E27
:1035380004010401026F000E0401036F000E040170
:10354800046F000E0401056F4EEC29F0000E516E59
:10355800000E526E300E515C750E5258D8A001D034
:1035680001D001D00AD0514A522A300E515C750E52
:103578005258D8A001D001D0F6D7040E0401040196
:10358800026F000E0401036F000E0401046F000EA9
:103598000401056F4EEC29F0000E516E000E526EBC
:1035A800300E515C750E5258D8A001D001D001D010
:1035B8000AD0514A522A300E515C750E5258D8A082
:1035C80001D001D0F6D7080E04010401026F000EE5
:1035D8000401036F000E0401046F000E0401056F5F
:1035E8004EEC29F0BDEF1FF00B6601D001D014D0CE
:1035F800136601D001D010D0650E04010401046FD8
:10360800020E0401056F5C0E04010401026F020E34
:103618000401036FAEEC24F00B04D8A401D002D04F
:10362800BCEF13F00401006F000E0B6E0401005193
:103638000A0E04010401026F000E0401036F000E5C
:103648000401046F000E0401056F4EEC29F0000E12
:10365800516E000E526E300E515C750E5258D8A045
:1036680001D001D001D00AD0514A522A300E515C03
:10367800750E5258D8A001D001D0F6D7040E040117
:103688000401026F000E0401036F000E0401046FB1
:10369800000E0401056F4EEC29F0000E516E000E6D
:1036A800526E300E515C750E5258D8A001D001D020
:1036B80001D00AD0514A522A300E515C750E525828
:1036C800D8A001D001D0F6D70B0E04010401026F77
:1036D800000E0401036F000E0401046F000E0401C4
:1036E800056F4EEC29F0BDEF1FF00B6601D001D03D
:1036F80014D0136601D001D010D06E0E040104015D
:10370800046F020E0401056F680E04010401026FC4
:10371800020E0401036FAEEC24F00B04D8A401D010
:1037280002D0BCEF13F00401006F000E0B6E040111
:1037380000510A0E04010401026F000E0401036F18
:10374800000E0401046F000E0401056F4EEC29F011
:10375800000E516E000E526E300E515C750E5258AE
:10376800D8A001D001D001D00AD0514A522A300E37
:10377800515C750E5258D8A001D001D0F6D7040E6E
:1037880004010401026F000E0401036F000E04011E
:10379800046F000E0401056F4EEC29F0000E516E07
:1037A800000E526E300E515C750E5258D8A001D0E2
:1037B80001D001D00AD0514A522A300E515C750E00
:1037C8005258D8A001D001D0F6D70C0E040104013C
:1037D800026F000E0401036F000E0401046F000E57
:1037E8000401056F4EEC29F0C4D30B6601D001D05B
:1037F80014D0136601D001D010D0040E04010401C6
:10380800046F020E0401056FFE0E04010401026F2D
:10381800010E0401036FAEEC24F00B04D8A401D010
:1038280002D0BCEF13F00401006F000E0B6E040110
:1038380000510A0E04010401026F000E0401036F17
:10384800000E0401046F000E0401056F4EEC29F010
:10385800000E516E000E526E300E515C750E5258AD
:10386800D8A001D001D001D00AD0514A522A300E36
:10387800515C750E5258D8A001D001D0F6D7050E6C
:1038880004010401026F000E0401036F000E04011D
:10389800046F000E0401056F4EEC29F0000E516E06
:1038A800000E526E300E515C750E5258D8A001D0E1
:1038B80001D001D00AD0514A522A300E515C750EFF
:1038C8005258D8A001D001D0F6D7050E0401040142
:1038D800026F000E0401036F000E0401046F000E56
:1038E8000401056F4EEC29F044D30B6601D001D0DA
:1038F80014D0136601D001D010D09C0E040104012D
:10390800046F020E0401056F940E04010401026F96
:10391800020E0401036FAEEC24F00B04D8A401D00E
:1039280002D0BCEF13F00401006F000E0B6E04010F
:103938000051090E04010401026F000E0401036F17
:10394800000E0401046F000E0401056F4EEC29F00F
:10395800000E516E000E526E300E515C750E5258AC
:10396800D8A001D001D001D00AD0514A522A300E35
:10397800515C750E5258D8A001D001D0F6D7080E68
:1039880004010401026F000E0401036F000E04011C
:10399800046F000E0401056F4EEC29F0EAD20B66A5
:1039A80001D001D014D0136601D001D010D0700E10
:1039B80004010401046F010E0401056F6B0E04017C
:1039C8000401026F010E0401036FAEEC24F00B0436
:1039D800D8A401D002D0BCEF13F00401006F000E90
:1039E8000B6E040100510D0E04010401026F000E5C
:1039F8000401036F000E0401046F000E0401056F3B
:103A08004EEC29F0000E516E000E526E300E515CD5
:103A1800750E5258D8A001D001D001D00AD0514A11
:103A2800522A300E515C750E5258D8A001D001D0E0
:103A3800F6D7040E04010401026F000E0401036F9F
:103A4800000E0401046F000E0401056F4EEC29F00E
:103A5800000E516E000E526E300E515C750E5258AB
:103A6800D8A001D001D001D00AD0514A522A300E34
:103A7800515C750E5258D8A001D001D0F6D7050E6A
:103A880004010401026F000E0401036F000E04011B
:103A9800046F000E0401056F4EEC29F06AD20B6624
:103AA80001D001D014D0136601D001D010D0750E0A
:103AB80004010401046F010E0401056F710E040175
:103AC8000401026F010E0401036FAEEC24F00B0435
:103AD800D8A401D002D0BCEF13F00401006F000E8F
:103AE8000B6E040100510D0E04010401026F000E5B
:103AF8000401036F000E0401046F000E0401056F3A
:103B08004EEC29F0000E516E000E526E300E515CD4
:103B1800750E5258D8A001D001D001D00AD0514A10
:103B2800522A300E515C750E5258D8A001D001D0DF
:103B3800F6D7000E04010401026F000E0401036FA2
:103B4800000E0401046F000E0401056F4EEC29F00D
:103B5800000E516E000E526E300E515C750E5258AA
:103B6800D8A001D001D001D00AD0514A522A300E33
:103B7800515C750E5258D8A001D001D0F6D70C0E62
:103B880004010401026F000E0401036F000E04011A
:103B9800046F000E0401056F4EEC29F0EAD10B66A4
:103BA80001D001D014D0136601D001D010D07A0E04
:103BB80004010401046F010E0401056F760E04016F
:103BC8000401026F010E0401036FAEEC24F00B0434
:103BD800D8A401D002D0BCEF13F00401006F000E8E
:103BE8000B6E040100510D0E04010401026F000E5A
:103BF8000401036F000E0401046F000E0401056F39
:103C08004EEC29F0000E516E000E526E300E515CD3
:103C1800750E5258D8A001D001D001D00AD0514A0F
:103C2800522A300E515C750E5258D8A001D001D0DE
:103C3800F6D7060E04010401026F000E0401036F9B
:103C4800000E0401046F000E0401056F4EEC29F00C
:103C5800000E516E000E526E300E515C750E5258A9
:103C6800D8A001D001D001D00AD0514A522A300E32
:103C7800515C750E5258D8A001D001D0F6D7040E69
:103C880004010401026F000E0401036F000E040119
:103C9800046F000E0401056F4EEC29F06AD10B6623
:103CA80001D001D014D0136601D001D010D0800EFD
:103CB80004010401046F010E0401056F7C0E040168
:103CC8000401026F010E0401036FAEEC24F00B0433
:103CD800D8A401D002D0BCEF13F00401006F000E8D
:103CE8000B6E040100510D0E04010401026F000E59
:103CF8000401036F000E0401046F000E0401056F38
:103D08004EEC29F0000E516E000E526E300E515CD2
:103D1800750E5258D8A001D001D001D00AD0514A0E
:103D2800522A300E515C750E5258D8A001D001D0DD
:103D3800F6D7060E04010401026F000E0401036F9A
:103D4800000E0401046F000E0401056F4EEC29F00B
:103D5800000E516E000E526E300E515C750E5258A8
:103D6800D8A001D001D001D00AD0514A522A300E31
:103D7800515C750E5258D8A001D001D0F6D70D0E5F
:103D880004010401026F000E0401036F000E040118
:103D9800046F000E0401056F4EEC29F0EAD00B66A3
:103DA80001D001D014D0136601D001D010D0860EF6
:103DB80004010401046F010E0401056F810E040162
:103DC8000401026F010E0401036FAEEC24F00B0432
:103DD800D8A401D002D0BCEF13F00401006F000E8C
:103DE8000B6E040100510D0E04010401026F000E58
:103DF8000401036F000E0401046F000E0401056F37
:103E08004EEC29F0000E516E000E526E300E515CD1
:103E1800750E5258D8A001D001D001D00AD0514A0D
:103E2800522A300E515C750E5258D8A001D001D0DC
:103E3800F6D7070E04010401026F000E0401036F98
:103E4800000E0401046F000E0401056F4EEC29F00A
:103E5800000E516E000E526E300E515C750E5258A7
:103E6800D8A001D001D001D00AD0514A522A300E30
:103E7800515C750E5258D8A001D001D0F6D7060E65
:103E880004010401026F000E0401036F000E040117
:103E9800046F000E0401056F4EEC29F06AD057C07C
:103EA80000F458C001F460D004010051000A02E196
:103EB8003EEF13F0010A02E1BEEF13F0030A02E13C
:103EC8003EEF14F0010A02E1BEEF14F0070A02E126
:103ED8003EEF15F0140A02E1BEEF15F0010A02E107
:103EE80018EF16F0030A02E198EF16F0010A02E152
:103EF80018EF17F0070A02E198EF17F0340A02E109
:103F080018EF18F0010A02E173EF18F0030A02E152
:103F1800F4EF18F0010A02E175EF19F0070A02E15F
:103F2800F6EF19F0140A02E177EF1AF0010A02E13C
:103F3800F8EF1AF0030A02E179EF1BF0010A01E138
:103F480054D4070A01E1D1D4740A01E128D5010A41
:103F580001E1A5D5030A01E122D6010A01E19FD6B4
:103F6800070A01E11CD705D004010151020A9CE0AF
:103F780000D00401006F000E136E0401005182EF9F
:103F880003F08CEF01F0040104010205D8A401D06C
:103F980001D02DD10401040103050411D8A401D0D6
:103FA80001D034D0000E516E000E526E120E515CCC
:103FB800000E5258D8A001D001D001D026D0D890F8
:103FC80051340401056F0201140E04010525E96E40
:103FD800EA6A0201020EEA22D89051340401066FFF
:103FE8001F0E04010625E16EE26A000EE222EECF02
:103FF800E6FFEDCFE5FF514A522A120E515C000E42
:104008005258D8A001D001D0DAD7F1D00401040168
:104018000351020A0411D8A401D001D034D0000EF3
:10402800516E000E526E120E515C000E5258D8A0FE
:1040380001D001D001D026D0D89051340401056FA9
:1040480002015C0E04010525E96EEA6A0201020E0E
:10405800EA22D89051340401066F1F0E0401062588
:10406800E16EE26A000EE222EECFE6FFEDCFE5FF59
:10407800514A522A120E515C000E5258D8A001D053
:1040880001D0DAD7B4D0040104010351030A0411A2
:10409800D8A401D001D034D0000E516E000E526E5B
:1040A800120E515C000E5258D8A001D001D001D098
:1040B80026D0D89051340401056F0201A40E0401E2
:1040C8000525E96EEA6A0201020EEA22D890513407
:1040D8000401066F1F0E04010625E16EE26A000E58
:1040E800E222EECFE6FFEDCFE5FF514A522A120E4B
:1040F800515C000E5258D8A001D001D0DAD777D041
:10410800040104010351040A0411D8A401D001D008
:1041180032D0000E516E000E526E120E515C000E1F
:104128005258D8A001D001D001D024D0D890513411
:104138000401056FEC0E04010525E96EEA6A020E1A
:10414800EA22D89051340401066F1F0E0401062597
:10415800E16EE26A000EE222EECFE6FFEDCFE5FF68
:10416800514A522A120E515C000E5258D8A001D062
:1041780001D0DCD73CD0040104010351050A041125
:10418800D8A401D001D033D0000E516E000E526E6B
:10419800120E515C000E5258D8A001D001D001D0A7
:1041A80026D0D89051340401056F0301340E040160
:1041B8000525E96EEA6A0301030EEA22D890513414
:1041C8000401066F1F0E04010625E16EE26A000E67
:1041D800E222EECFE6FFEDCFE5FF514A522A120E5A
:1041E800515C000E5258D8A001D001D0DAD7040192
:1041F8000401026701D001D02DD104010401030597
:104208000411D8A401D001D032D0000E516E000E96
:10421800526E120E515C000E5258D8A001D001D037
:1042280001D024D0D89051340401056FF00E040158
:104238000525E96EEA6A010EEA22D8905134040194
:10424800066F1F0E04010625E16EE26A000EE222E7
:10425800EECFE6FFEDCFE5FF514A522A120E515C30
:10426800000E5258D8A001D001D0DCD7F3D00401F9
:1042780004010351020A0411D8A401D001D034D09A
:10428800000E516E000E526E120E515C000E525806
:10429800D8A001D001D001D026D0D8905134040143
:1042A800056F0201380E04010525E96EEA6A02016C
:1042B800020EEA22D89051340401066F1F0E040141
:1042C8000625E16EE26A000EE222EECFE6FFEDCFB0
:1042D800E5FF514A522A120E515C000E5258D8A0DE
:1042E80001D001D0DAD7B6D0040104010351030A82
:1042F8000411D8A401D001D034D0000E516E000EA4
:10430800526E120E515C000E5258D8A001D001D046
:1043180001D026D0D89051340401056F0201800ED7
:1043280004010525E96EEA6A0201020EEA22D89024
:1043380051340401066F1F0E04010625E16EE26A7E
:10434800000EE222EECFE6FFEDCFE5FF514A522AFA
:10435800120E515C000E5258D8A001D001D0DAD705
:1043680079D0040104010351040A0411D8A401D02E
:1043780001D034D0000E516E000E526E120E515CF8
:10438800000E5258D8A001D001D001D026D0D89024
:1043980051340401056F0201C80E04010525E96EB8
:1043A800EA6A0201020EEA22D89051340401066F2B
:1043B8001F0E04010625E16EE26A000EE222EECF2E
:1043C800E6FFEDCFE5FF514A522A120E515C000E6E
:1043D8005258D8A001D001D0DAD73CD0040104014A
:1043E8000351050A0411D8A401D001D033D0000E1E
:1043F800516E000E526E120E515C000E5258D8A02B
:1044080001D001D001D026D0D89051340401056FD5
:104418000301100E04010525E96EEA6A0301030E83
:10442800EA22D89051340401066F1F0E04010625B4
:10443800E16EE26A000EE222EECFE6FFEDCFE5FF85
:10444800514A522A120E515C000E5258D8A001D07F
:1044580001D0DAD7A092B1904BEC2FF09DEC28F068
:10446800000E516E000E526E4C0E515C4F0E52589B
:10447800D8A001D001D001D00AD0514A522A4C0EFE
:10448800515C4F0E5258D8A001D001D0F6D74BEC52
:104498002FF09DEC28F0000E516E000E526E4C0E5F
:1044A800515C4F0E5258D8A001D001D001D00AD08B
:1044B800514A522A4C0E515C4F0E5258D8A001D086
:1044C80001D0F6D74BEC2FF09DEC28F0000E516E82
:1044D800000E526E4C0E515C4F0E5258D8A001D0AF
:1044E80001D001D00AD0514A522A4C0E515C4F0ECD
:1044F8005258D8A001D001D0F6D74BEC2FF09DEC44
:1045080028F0000E516E000E526E4C0E515C4F0E8C
:104518005258D8A001D001D001D00AD0514A522A0D
:104528004C0E515C4F0E5258D8A001D001D0F6D78E
:104538004BEC2FF09DEC28F0000E516E000E526EE1
:104548004C0E515C4F0E5258D8A001D001D001D06A
:104558000AD0514A522A4C0E515C4F0E5258D8A0DC
:1045680001D001D0F6D74BEC2FF09DEC28F0000ECF
:10457800516E000E526E4C0E515C4F0E5258D8A020
:1045880001D001D001D00AD0514A522A4C0E515CB8
:104598004F0E5258D8A001D001D0F6D7A082B180D2
:1045A80012000600EACF1AF4E1CF1BF4E2CF1CF4A4
:1045B800D9CF1DF4DACF1EF4F3CF1FF4F4CF20F4D3
:1045C800F6CF21F4F7CF22F4F8CF23F4F2A401D0E8
:1045D80001D01FD0010E4D244D6E000E4E204E6EA0
:1045E800E90ECE5CFD0ECF58D8A001D001D00CD07A
:1045F8000401166F010E0A6E04011651010111C063
:10460800EEF101010101EF6BB20ED66EF30ED76E1B
:10461800F294A1A201D001D03CD00A0E04010401F9
:10462800266F000E0401276F010E552404010401B2
:10463800246F000E56200401256FC2EC2CF024C410
:1046480055F025C456F00250555C03505658D8B062
:1046580001D001D002D0818A01D0819A5950555C8D
:104668005A505658D8B001D001D002D0818C01D010
:10467800819C4950555C4A505658D8B001D001D059
:1046880002D0818E01D0819EA1923C0EB26EF60EB0
:10469800B36EA1A001D001D019D082AE01D001D053
:1046A80014D01150020D0101000EF324E96E01012E
:1046B800010EF420EA6ECECFEEFFCFCFEDFF000E55
:1046C800CE6E000ECF6E1128116EA1909EA401D05F
:1046D80001D019D082AE01D001D014D01150020DF2
:1046E8000101000EF324E96E0101010EF420EA6EC7
:1046F800CECFEEFFCFCFEDFF000ECE6E000ECF6E09
:104708001128116E9E94F2A201D001D082D00F0E12
:10471800040104012E6F000E04012F6FE7EC2EF048
:1047280081A001D001D05BD0000E456E000E466E10
:10473800000E476E000E486E010E4524456E000EB1
:104748004620466E000E4720476E000E4820486EF1
:104758005A0E455CC30E4658000E4758000E48587E
:10476800D8B001D001D004D081B001D001D0E4D7B5
:10477800510E455CC30E4658000E4758000E485867
:10478800D8A001D001D010D0D80E04010401266FA2
:10479800020E0401276FD70E04010401246F020ED4
:1047A8000401256F2BEC26F0000E516E000E526EA0
:1047B8000A0E515C000E5258D8A001D001D001D089
:1047C8000AD0514A522A0A0E515C000E5258D8A0FB
:1047D80001D001D0F6D781B001D001D0E5D7510E74
:1047E800455CC30E4658000E4758000E4858D8A0DE
:1047F80001D001D007D00401166F020E106E04011B
:10480800165106D00401166F010E106E04011651E0
:10481800F292F0A001D001D082D00F0E0401040161
:104828002E6F000E04012F6FE7EC2EF081A201D04D
:1048380001D05BD0000E456E000E466E000E476E2E
:10484800000E486E010E4524456E000E4620466E49
:10485800000E4720476E000E4820486E5A0E455CF1
:10486800C30E4658000E4758000E4858D8B001D01D
:1048780001D004D081B201D001D0E4D7510E455CFB
:10488800C30E4658000E4758000E4858D8A001D00D
:1048980001D010D0D80E04010401266F020E0401C5
:1048A800276FD70E04010401246F020E0401256F3F
:1048B8002BEC26F0000E516E000E526E0A0E515C63
:1048C800000E5258D8A001D001D001D00AD0514AC8
:1048D800522A0A0E515C000E5258D8A001D001D0BD
:1048E800F6D781B201D001D0E5D7510E455CC30E91
:1048F8004658000E4758000E4858D8A001D001D09D
:1049080007D00401166F020E016E0401165106D07D
:104918000401166F010E016E04011651F09023C4B4
:10492800F8FF22C4F7FF21C4F6FF20C4F4FF1FC418
:10493800F3FF1EC4DAFF1DC4D9FF1CC4E2FF1BC469
:10494800E1FF1AC4EAFF19C4E9FF18C4FBFF17C442
:10495800FAFF1100939093928080808480968090D3
:104968000401066F010E04010401086F04010651D9
:1049780015EC2CF00401066F000E04010401086F09
:104988000401065115EC2CF080808084809680907C
:104998000401066F040E04010401086F04010651A6
:1049A80015EC2CF00401066F000E04010401086FD9
:1049B8000401065115EC2CF080808084809680904C
:1049C8000401066F800E04010401086F04010651FA
:1049D80015EC2CF00401066F000E04010401086FA9
:1049E8000401065115EC2CF002C408F415EC2CF067
:1049F800FF0E040104010315D8A401D001D00BD087
:104A08000401066F000E04010401086F0401065139
:104A180015EC2CF05BD0000E040104010215040112
:104A2800066FFF0E0401040103150401076F04015A
:104A380007050611D8A401D001D00BD00401066FD8
:104A4800010E04010401086F0401065115EC2CF055
:104A58003DD0000E0401040102150401066FFF0E8B
:104A68000401040103150401076F04010751020A38
:104A78000611D8A401D001D00BD00401066F020E94
:104A880004010401086F0401065115EC2CF01ED036
:104A9800000E0401040102150401066FFF0E040153
:104AA800040103150401076F04010751030A0611E5
:104AB800D8A401D001D00AD00401066F030E040166
:104AC8000401086F0401065115EC2CF004C408F425
:104AD80015EC2CF0FF0E040104010515D8A401D033
:104AE80001D00BD00401066F000E04010401086F09
:104AF8000401065115EC2CF05BD0000E04010401F2
:104B080004150401066FFF0E0401040105150401D4
:104B1800076F040107050611D8A401D001D00BD0F6
:104B28000401066F010E04010401086F0401065117
:104B380015EC2CF03DD0000E04010401041504010D
:104B4800066FFF0E0401040105150401076F040137
:104B58000751020A0611D8A401D001D00BD00401D4
:104B6800066F020E04010401086F0401065115ECDA
:104B78002CF01ED0000E0401040104150401066F78
:104B8800FF0E0401040105150401076F0401075114
:104B9800030A0611D8A401D001D00AD00401066F77
:104BA800030E04010401086F0401065115EC2CF0F2
:104BB8000401066F000E04010401086F0401065188
:104BC80015EC2CF0640E04010401106F000E0401B2
:104BD800116FC5EC2EF0808080848096809004014F
:104BE800066F070E04010401086F0401065115EC55
:104BF8002CF00401066F000E04010401086F040183
:104C0800065115EC2CF080807E0E040104010A6F19
:104C1800000E04010B6F0401040102510401040198
:104C2800045D04010401086F040104010351040137
:104C3800040105590401096F3DEC2EF008C410F475
:104C480009C411F4C5EC2EF093809382120093905E
:104C5800939280808084809680900401286F010E52
:104C6800040104012A6F04012851BAEC2BF0040155
:104C7800286F000E040104012A6F04012851BAECC0
:104C88002BF080808084809680900401286F040E29
:104C9800040104012A6F04012851BAEC2BF0040125
:104CA800286F000E040104012A6F04012851BAEC90
:104CB8002BF080808084809680900401286F800E7D
:104CC800040104012A6F04012851BAEC2BF00401F5
:104CD800286F000E040104012A6F04012851BAEC60
:104CE8002BF024C42AF4BAEC2BF0FF0E04010401C3
:104CF8002515D8A401D001D00BD00401286F000ECF
:104D0800040104012A6F04012851BAEC2BF05BD08E
:104D1800000E0401040124150401286FFF0E04018C
:104D2800040125150401296F040129052811D8A4B7
:104D380001D001D00BD00401286F010E0401040139
:104D48002A6F04012851BAEC2BF03DD0000E040163
:104D5800040124150401286FFF0E04010401251520
:104D68000401296F04012951020A2811D8A401D08D
:104D780001D00BD00401286F020E040104012A6F30
:104D880004012851BAEC2BF01ED0000E04010401D6
:104D980024150401286FFF0E0401040125150401E0
:104DA800296F04012951030A2811D8A401D001D080
:104DB8000AD00401286F030E040104012A6F0401BC
:104DC8002851BAEC2BF026C42AF4BAEC2BF0FF0ECB
:104DD800040104012715D8A401D001D00BD0040187
:104DE800286F000E040104012A6F04012851BAEC4F
:104DF8002BF05BD0000E0401040126150401286F76
:104E0800FF0E0401040127150401296F0401290577
:104E18002811D8A401D001D00BD00401286F010EAD
:104E2800040104012A6F04012851BAEC2BF03DD08B
:104E3800000E0401040126150401286FFF0E040169
:104E4800040127150401296F04012951020A2811B8
:104E5800D8A401D001D00BD00401286F020E0401A0
:104E680004012A6F04012851BAEC2BF01ED0000E61
:104E78000401040126150401286FFF0E0401040132
:104E880027150401296F04012951030A2811D8A400
:104E980001D001D00AD00401286F030E04010401D7
:104EA8002A6F04012851BAEC2BF00401286F000E78
:104EB800040104012A6F04012851BAEC2BF0640E96
:104EC800040104012E6F000E04012F6FE7EC2EF091
:104ED80080808084809680900401286F070E0401EA
:104EE80004012A6F04012851BAEC2BF00401286F41
:104EF800000E040104012A6F04012851BAEC2BF0BA
:104F080080807E0E040104012C6F000E04012D6FB9
:104F180004010401245104010401265D0401040173
:104F28002A6F0401040125510401040127590401D1
:104F38002B6F0AEC2EF02AC42EF42BC42FF4E7ECC6
:104F48002EF0938093821200000E516E000E526E66
:104F5800400E515C9C0E5258D8A001D001D001D00F
:104F68000AD0514A522A400E515C9C0E5258D8A081
:104F780001D001D0F6D7126601D001D009D007665A
:104F880001D001D005D01650D8B401D001D00ED030
:104F9800126601D001D010D00704D8A401D001D0E6
:104FA8000BD01604D8A401D001D006D0010E0224DB
:104FB800026E000E0320036E1204D8A401D001D0A3
:104FC8000ED0076601D001D00AD0166601D001D0F4
:104FD80006D0010E5924596E000E5A205A6E1266D8
:104FE80001D001D00FD00704D8A401D001D00AD035
:104FF800166601D001D006D0010E4924496E000E74
:105008004A204A6E1204D8A401D001D00AD007045D
:10501800D8A401D001D005D01650D8B401D001D001
:105028000ED01204D8A401D001D00FD0076601D049
:1050380001D00BD01604D8A401D001D006D0FF0EA1
:105048000224026EFF0E0320036E1204D8A401D0BE
:1050580001D010D00704D8A401D001D00BD0160479
:10506800D8A401D001D006D0FF0E5924596EFF0EE6
:105078005A205A6E126601D001D00FD0076601D0AF
:1050880001D00BD01604D8A401D001D006D0FF0E51
:105098004924496EFF0E4A204A6E02500A0A03103C
:1050A800D8A401D001D006D00401026F010E126EFF
:1050B8000401025159500A0A5A10D8A401D001D04B
:1050C80006D00401026F010E076E04010251495017
:1050D8000A0A4A10D8A401D001D006D00401026FF0
:1050E800010E166E0401025103500210D8A401D01B
:1050F80001D006D00401026F000E126E04010251A5
:105108005A505910D8A401D001D006D00401026F1A
:10511800000E076E040102514A504910D8A401D06C
:1051280001D006D00401026F000E166E0401025170
:1051380012000401076F000E116E04010751000EE2
:105148004D6E000E4E6E1150020D0301580EF324E1
:10515800E96EEA6A0301030EEA22EE524E50ED1898
:105168004DC0E8FFD8B4EF18D8A401D001D009D0B9
:1051780082804DC04FF04EC050F0010E4B6E000EB5
:105188004C6E4E50501802E14D504F18D8B401D013
:1051980001D00CD04B044C10D8A401D001D006D0BB
:1051A8001128116E000E4B6E000E4C6E1150020D40
:1051B8000301580EF324E96EEA6A0301030EEA229A
:1051C800EE524E50ED184DC0E8FFD8B4EF18D8B4E1
:1051D80001D001D001D082902F0E4D5C000E4E58A8
:1051E800D8A001D001D0AFD70401076F000E116E0F
:1051F80004010751000E4D6E000E4E6E1150020D47
:105208001F0EF324E96EEA6A000EEA22EE524E50AF
:10521800ED184DC0E8FFD8B4EF18D8A401D001D0DC
:1052280009D082804DC04FF04EC050F0010E4B6E39
:10523800000E4C6E4E50501802E14D504F18D8B425
:1052480001D001D00CD04B044C10D8A401D001D00F
:1052580006D01128116E000E4B6E000E4C6E1150C8
:10526800020D1F0EF324E96EEA6A000EEA22EE52DE
:105278004E50ED184DC0E8FFD8B4EF18D8B401D09F
:1052880001D001D08290100E116401D001D0B6D7A0
:1052980082901200A092B190F29AD59E000E516EA3
:1052A800000E526E780E515C000E5258D8A001D0F4
:1052B80001D001D01FD0D89051340401066F523468
:1052C8000401076F0101000E04010625E96E0101C2
:1052D800010E04010721EA6E000EEE6E000EED6E5F
:1052E800514A522A780E515C000E5258D8A001D06B
:1052F80001D0E1D7829CF00E040104010E6F000E6C
:1053080004010F6F000E0401106F000E0401116FED
:1053180002C40AF403C40BF404C40CF405C40DF469
:1053280070EC2CF00AC408F40BC409F40CC40AF499
:105338000DC40BF409EC2FF0000E516E000E526EE6
:10534800780E515C000E5258D8A001D001D001D07F
:1053580023D0A0EC2EF0D89051340401066F5234BB
:105368000401076F0101000E04010625E96E010121
:10537800010E04010721EA6E040108C4EEFF0401CE
:1053880009C4EDFF514A522A780E515C000E52585A
:10539800D8A001D001D0DDD7828C5AEC2DF0A082A4
:1053A800B180F28AD58E1200000E516E000E526E38
:1053B800A00E515C0F0E5258D8A001D001D001D0D8
:1053C8000AD0514A522AA00E515C0F0E5258D8A04A
:1053D80001D001D0F6D7000E516E000E526E780E35
:1053E800515C000E5258D8A001D001D001D01FD076
:1053F800D890513404010A6F523404010B6F010133
:10540800000E04010A25E96E0101010E04010B21B9
:10541800EA6E000EEE6E000EED6E514A522A780EBC
:10542800515C000E5258D8A001D001D0E1D7828E2D
:1054380004010A6F000E116E04010A5104010A6F7B
:10544800000E0A6E04010A51100ECE6E270ECF6EA2
:1054580082B201D001D0F8D7000E516E000E526E04
:10546800050E515C000E5258D8A001D001D001D0D1
:105478000AD0514A522A050E515C000E5258D8A043
:1054880001D001D0F6D70A50D8B401D001D0E4D762
:10549800829E8C0E01010101022501010101026FAA
:1054A800D80E0101010103210101036F04010A6FF4
:1054B800000E0A6E04010A511200A092B190D8ECB5
:1054C80029F0828C640E04010401106F000E04019F
:1054D800116FC5EC2EF0829CF29AD59E6BEC2FF0E2
:1054E800828C829C000E516E000E526E780E515CBA
:1054F800000E5258D8A001D001D001D05CD0D8906D
:1055080051340401066F52340401076FF00E040190
:1055180004010E6F000E04010F6F000E0401106FDE
:10552800000E0401116F02C40AF403C40BF404C48E
:105538000CF405C40DF470EC2CF0040106510401C0
:1055480004010A25040104010A6F0401075104013A
:1055580004010B2104010B6F000E040104010C214E
:1055680004010C6F000E040104010D2104010D6FEC
:10557800D89051340401086F52340401096F0101B5
:10558800000E04010825E96E0101010E040109213C
:10559800EA6E0401EECF0EF40401EDCF0FF470ECC7
:1055A8002EF0514A522A780E515C000E5258D8A05B
:1055B80001D001D0A4D7A082B180F28AD58E120082
:1055C800000E516E000E526E400E515C9C0E5258E9
:1055D800D8A001D001D001D00AD0514A522A400E99
:1055E800515C9C0E5258D8A001D001D0F6D71E0E9F
:1055F80004010401046F000E0401056F010E532419
:1056080004010401026F000E54200401036F0EEC24
:105618002DF002C453F003C454F00A0E535C000E7C
:105628005458D8B001D001D011D053C002F054C0A2
:1056380003F053500A08596E5450D8A0E82A0008BD
:105648005A6E000E496E000E4A6E29D0140E535C35
:10565800000E5458D8B001D001D011D053500A08C8
:10566800026E5450D8A0E82A0008036E000E596E46
:10567800000E5A6E53C049F054C04AF010D0000EC4
:10568800026E000E036E53500A08496E5450D8A09B
:10569800E82A00084A6E53C059F054C05AF0120064
:1056A80080808084809680900401036F010E04013D
:1056B8000401086F0401035115EC2CF00401036F79
:1056C800000E04010401086F0401035115EC2CF0CD
:1056D80080808084809680900401036F040E04010A
:1056E8000401086F0401035115EC2CF00401036F49
:1056F800000E04010401086F0401035115EC2CF09D
:1057080080808084809680900401036F650E040178
:105718000401086F0401035115EC2CF002C408F4CD
:1057280015EC2CF00401036F040E04010401086F4A
:105738000401035115EC2CF08080808480968090C1
:105748000401036F070E04010401086F04010351EB
:1057580015EC2CF00401036F000E04010401086F1E
:105768000401035115EC2CF08080120080840401A0
:105778002D6F000E040104012B6F04012D5104014B
:105788002D6F000E040104012C6F04012D51070E2A
:10579800040104012C6501D001D001D040D00401DE
:1057A80004012AA101D001D002D0808601D08096C0
:1057B8008094010E040104012E6F000E04012F6F66
:1057C800E7EC2EF08084010E040104012E6F000E18
:1057D80004012F6FE7EC2EF00401D89004012B315F
:1057E800040104012B6F80A801D001D007D0040167
:1057F80004012B51800F040104012B6F0401D89080
:1058080004012A31040104012A6F040104012C2B2C
:10581800070E040104012C6501D001D0C0D700D0C7
:105828001200808404010B6F000E04010401096F4B
:1058380004010B5104010B6F000E040104010A6FEF
:1058480004010B51070E040104010A6501D001D0BF
:1058580001D040D00401040108A101D001D002D038
:10586800808601D080968094010E04010401106F97
:10587800000E0401116FC5EC2EF08084010E0401A6
:105888000401106F000E0401116FC5EC2EF0040125
:10589800D8900401093104010401096F80A801D0DE
:1058A80001D007D0040104010951800F040104014B
:1058B800096F0401D8900401083104010401086F3C
:1058C800040104010A2B070E040104010A6501D032
:1058D80001D0C0D700D01200000E04010401126FDD
:1058E800000E0401136F000E0401146F000E040172
:1058F800156F040104010AA101D001D018D00401D8
:1059080004010E51040104011227040104010F517E
:1059180004010401132304010401105104010401CA
:105928001423040104011151040104011523040185
:10593800D89004010E3704010F3704011037040111
:1059480011370401D89004010D3304010C3304010C
:105958000B3304010A3304010D510A110B110C1108
:10596800D8A401D001D0C5D712C40AF413C40BF4CB
:1059780014C40CF415C40DF400D012000401040181
:1059880027512611D8B401D001D03ED00401296F87
:10599800010E04010401286F0401295109D00401F2
:1059A800D890040126370401273704010401282B65
:1059B8000401040127AF01D001D0F1D7040104018B
:1059C800265104010401245D040104012751040146
:1059D80004012559D8A001D001D00CD0040104013C
:1059E800265104010401245F040104012751040124
:1059F8000401255B0401D8900401273304012633F0
:105A080004010401282FDAD724C424F425C425F47A
:105A180000D012000401040105510411D8B401D0CA
:105A280001D03ED00401076F010E04010401066F86
:105A38000401075109D00401D89004010437040176
:105A4800053704010401062B0401040105AF01D048
:105A580001D0F1D704010401045104010401025DDD
:105A6800040104010551040104010359D8A001D01F
:105A780001D00CD004010401045104010401025FA7
:105A880004010401055104010401035B0401D890D9
:105A9800040105330401043304010401062FDAD795
:105AA80002C402F403C403F400D01200809204017B
:105AB800086F000E116E04010851000ECE6E000E24
:105AC800CF6E1150020D0101000EF324E96E0101A1
:105AD800010EF420EA6EEECF08F4EDCF09F40401CC
:105AE8000851CE5C04010951CF58D8A001D001D08B
:105AF80007D080721128116E000ECE6E000ECF6E88
:105B080011C008F40401096B01010101EE510401FF
:105B1800085D01010101EF5104010959D8A001D024
:105B280001D0CFD7809212008492819681980A0E74
:105B380004010401106F000E0401116FC5EC2EF072
:105B4800000E516E000E526E080E515C000E525837
:105B5800D8A001D001D001D01ED081880A0E04013E
:105B68000401106F000E0401116FC5EC2EF081982E
:105B78000A0E04010401106F000E0401116FC5EC38
:105B88002EF0514A522A080E515C000E5258D8A0E5
:105B980001D001D0E2D78482120084928186819854
:105BA8000A0E04010401106F000E0401116FC5EC08
:105BB8002EF0000E516E000E526E080E515C000E53
:105BC8005258D8A001D001D001D01ED081880A0E29
:105BD80004010401106F000E0401116FC5EC2EF0D2
:105BE80081980A0E04010401106F000E0401116F60
:105BF800C5EC2EF0514A522A080E515C000E52583C
:105C0800D8A001D001D0E2D784821200000E04018E
:105C180004012E6F000E04012F6F040104012AA154
:105C280001D001D00CD0040104012C51040104015D
:105C38002E27040104012D51040104012F2304011E
:105C4800D89004012C3704012D370401D8900401A1
:105C58002B3304012A33040104012B512A11D8A43F
:105C680001D001D0DAD72EC42AF42FC42BF400D0E7
:105C78001200000E040104010C6F000E04010D6FE8
:105C88000401040108A101D001D00CD004010401D1
:105C98000A51040104010C27040104010B510401F9
:105CA80004010D230401D89004010A3704010B37BD
:105CB8000401D890040109330401083304010401E4
:105CC80009510811D8A401D001D0DAD70CC408F4BE
:105CD8000DC409F400D01200828C050E04010401E1
:105CE800106F000E0401116FC5EC2EF0829C6BEC56
:105CF8002FF0828C050E04010401106F000E0401C0
:105D0800116FC5EC2EF0829C0AC410F40BC411F478
:105D18000CC412F40DC413F42AEC2FF0040104018E
:105D28000F5104010401106F62EC2FF00EC410F43F
:105D380062EC2FF0828C12009E96000EC96E00D085
:105D48009EA601D001D0FCD70401C9CF0AF40401F2
:105D580004010B6B9E96000EC96E00D09EA601D062
:105D680001D0FCD7040104010A51040104010B6F9E
:105D7800C95004010A6F0AC408F40BC409F400D01E
:105D88001200F40E04010401126F010E0401136FD6
:105D9800040104011207D8A01307040104011351D8
:105DA8001211D8A401D001D0F3D7040104011007BF
:105DB800D8A011070401040111511011D8A401D071
:105DC80001D0DFD71200F40E04010401306F010E78
:105DD8000401316F040104013007D8A03107040120
